:020000040800F2
:1000000080450120A101000863270008E9240008B9
:1000100061270008AD0200088130000800000000E0
:10002000000000000000000000000000CD2D0008CE
:1000300023040008000000006B2A00084D2E000871
:10004000BB010008BB010008BB010008BB010008A0
:10005000BB010008BB010008BB010008BB01000890
:10006000BB010008BB010008BB010008BB01000880
:10007000BB010008BB010008BB010008BB01000870
:10008000BB010008BB010008BB010008BB01000860
:10009000BB010008BB010008BB010008BB01000850
:1000A000BB010008BB010008BB010008BB01000840
:1000B000BB010008BB010008BB010008BB01000830
:1000C000BB010008BB010008BB010008BB01000820
:1000D000BB010008BB010008BB010008BB01000810
:1000E000BB010008BB010008BB010008BB01000800
:1000F000BB010008BB010008BB010008BB010008F0
:10010000BB010008BB010008BB010008BB010008DF
:10011000BB010008BB010008BB010008BB010008CF
:10012000BB01000855030008BB010008BB01000823
:10013000BB010008BB010008BB010008BB010008AF
:10014000BB010008BB010008BB010008BB0100089F
:10015000BB010008BB010008BB010008BB0100088F
:10016000BB010008BB010008BB010008BB0100087F
:10017000BB010008BB0100084903000800000000A3
:10018000BB010008BB010008DFF810D000F07CF8CC
:1001900000480047BD330008AFF3008080450120D0
:1001A0000648804706480047FEE7FEE7FEE7FEE711
:1001B000FEE7FEE7FEE7FEE7FEE7FEE7ED2E0008BE
:1001C000890100082DE9F05F0546002092469B4614
:1001D00088460646814640241BE02846414647465D
:1001E000224600F041F853465A46C01A914110D3B6
:1001F00011461846224600F028F82D1A67EB010830
:100200004F4622460120002100F01FF817EB00099D
:100210004E41201EA4F10104DFDC484631462A4647
:100220004346BDE8F09FD2B201E000F8012B491E21
:10023000FBD270470022F6E710B513460A46044683
:100240001946FFF7F0FF204610BD202A04DB203AB4
:1002500000FA02F1002070479140C2F1200320FA19
:1002600003F3194390407047202A04DB203A21FA17
:1002700002F00021704721FA02F3D040C2F12002BF
:100280009140084319467047064C074D06E0E06868
:1002900040F0010394E8070098471034AC42F6D3CD
:1002A000FFF776FF3837000858370008FEE710B52B
:1002B000806B816B496D022902D0012180F82510E5
:1002C00000F0B2F810BD10B5846BA26AA06B016893
:1002D000CAB10A68A36A02F40022DB0706D12AB178
:1002E000C968E26A01EBC201002207E00A68120352
:1002F00019D40969E26A01EBC201012200F0CDFACA
:10030000A06A401E0EE00868000302D5606BC8605A
:1003100009E00868000306D4E26A606B00EB820023
:100320000861206BA062A06A216B88420BD1206813
:10033000C16841F00101C16020680068800702D5F2
:10034000012084F8250010BD014800F0B3B800007A
:1003500038000020014800F0C3BF000078000020F2
:1003600001681823CAB2103AB2FBF3F2054B6FF3DF
:100370000901032A9B5CC36500D9091D81650846F4
:10038000704700000035000810B5014600208B6959
:100390008A6A4FF0C07453B1B3F5005F15D072B1E3
:1003A000012A0CD0022A0AD0032A09D104E01AB18A
:1003B000012A06D0022A03D1C96AC90100D5012049
:1003C00010BDC96AA142FAD010BD002AF7D0012A97
:1003D000F2D0022AF3D0032AF3D010BD10B504687E
:1003E00063608368402B036803D099600068C26033
:1003F00010BD9A600068C16010BD30B50468256802
:1004000025F480252560046863608368402B0368B9
:1004100003D099600068C26030BD9A600068C16016
:1004200030BD704772B6FEE77047000070B5194CDA
:1004300005462078401C2070284600F0BDF9607801
:10044000B8B100266670217813A002F01BFE207858
:1004500002281DD32670284600F0AEF9284600F089
:10046000E5F9124802F00CF8BDE87040104802F0BF
:1004700007B801206070217807A002F003FE28462B
:10048000BDE870404FF42053094A002100F038B90C
:1004900070BD00001800002063757272656E7420D4
:1004A0006672616D652025640D0A000080010020E0
:1004B00080A100202DE9F041044600680569224F23
:1004C00069074FF004060BD54661E06B40F002006F
:1004D000E06384F82560A06B0765A06B00F0EDFE7B
:1004E000A8070DD5216802204861E06B40F00100AB
:1004F000E06384F82560A06B0765A06B00F0DDFE6B
:10050000E80605D5216810204861204600F061F812
:10051000280705D5216808204861204600F0BCF96D
:10052000E8070FD020680168890703D5C16821F06A
:100530001E01C1602068C16821F00101C160204630
:10054000FFF774FFBDE8F081AF02000870B504004A
:1005500004D094F82500002510B109E0012070BDF9
:1005600084F82450204600F035F8204600F032F898
:10057000022084F825002068016840F6F872914353
:100580000160616960680843D4E9031211430843BC
:10059000A1680843A1690843216A084321680A68E1
:1005A000104308606068102808D1A17FA08B61F318
:1005B0001F40E17F40EA0160216888612068C168CE
:1005C00041F01E01C160E563012084F82500002090
:1005D00070BD7047F0B587B0064614216846FFF736
:1005E00029FE3F493068884278D13E48002501689D
:1005F00041F00101016000683A4900F00100091F63
:100600000590086840F010000860086800F01000CD
:100610000590086840F001000860086800F00100DB
:100620000590086840F004000860086800F00400C5
:100630000590086840F0020008600868022400F095
:100640000200059060208DE831000D27CDE90357A9
:100650006946254800F0C8FF50208DE83100CDE9FB
:1006600003576946214800F0BFFF4FF43C608DE816
:100670003100CDE9035769461D4800F0B5FFC020A1
:100680008DE83100CDE9035769461A4800F0ACFF08
:100690001A4C194820604FF00070C4E90105C013DE
:1006A000C4E90350800060618000C4E906050420AD
:1006B000C4E908500320C4E90A052046256300F078
:1006C000DFFE08B1FFF7AEFEB463002205214E2025
:1006D000A66301F0F9F84E2001F0E8F807B0F0BD8C
:1006E0000000055034380240001002400000024073
:1006F0000008024000040240286402407800002004
:10070000F8B5044690F82400012827D0012084F889
:100710002400022584F8255025682E6846F480467A
:100720002E6025682E6826F002062E6025682E6849
:100730000E432E60A56B1E49E963A66B1D4DF56443
:10074000A66B00253565A56206042563B34207D272
:100750002168A06B283100F0FDFE1FE00220F8BDEB
:10076000A76B7964A062E362626305E0E06A400817
:10077000E062A06A4000A062E06AB042F6D2A06ADD
:10078000801EA062A06A2063E06A02EB8003E06A38
:1007900000902168A06B283100F086F8206801687D
:1007A00041F00101016084F824500020F8BD0000F0
:1007B000C7020008AF020008F8B504461A480E2127
:1007C00000250068B0FBF1F0009094F824000128A7
:1007D00027D0012684F82460022084F825002068B0
:1007E000016821F001010160206800994A1E009211
:1007F00005D2E16B41F02001E163032502E00168CD
:10080000C907F2D1016821F480410160A06B243452
:1008100000F00AFDA069A0616670002020702846E3
:10082000F8BD0220F8BD00001400002018B51949D9
:100830000E220968B1FBF2F1009190F82410002219
:10084000012907D0012380F8243090F825100229CF
:1008500002D019E0022018BD052180F8251001689A
:100860000C6824F001040C6000994C1E009407D21F
:10087000C16B41F02001C16380F82530032203E001
:1008800001680968C907EFD1002180F824101046DB
:1008900018BD0000140000207047006812B101610B
:1008A00000207047C160FBE72DE9F84F04460020A7
:1008B0000A9D0090A0684FF4807A802817D0E06BE2
:1008C000B8B1606CA8B1E06C98B194F8340001281C
:1008D00013D0012084F8340094F835600020012EF4
:1008E0000DD084F8340002200090BDE8F88F504607
:1008F00000E0402060650120F7E70220F5E70226CE
:1009000084F8356060652068066846F480260660D5
:10091000206803612B462046FFF760FDDFF8008466
:100920004FF4006B4FF4001EFE48FD4AFD4BFC4D9A
:10093000FC4EFB4FDFF8ECC3DFF8E4932168483A44
:10094000603318351836303F0CF1780C09F1300956
:10095000414534D9814205D0914203D0994201D01A
:10096000A94201D1202125E0B14205D0B94203D0EE
:10097000614501D0494501D159461BE0DFF8A48308
:1009800008F13008414511D0DFF89483A8F1180828
:1009900041450BD0DFF88C8308F19008414505D024
:1009A000DFF87C8308F14808414501D1714601E038
:1009B0004FF00061DFF86883A8F14C0839E0DFF8F8
:1009C000648308F1A808414536D9814205D0914297
:1009D00003D0994201D0A94201D1202125E0B142A2
:1009E00005D0B94203D0614501D0494501D15946EE
:1009F0001BE0DFF8308308F13008414511D0DFF803
:100A00002083A8F1180841450BD0DFF8188308F1BE
:100A10009008414505D0DFF8088308F148084145B2
:100A200001D1714601E04FF00061DFF8F482A8F1D6
:100A30005008C8F8001072E0DFF8E88208F14808B2
:100A4000414536D9814205D0914203D0994201D027
:100A5000A94201D1202125E0B14205D0B94203D0FD
:100A6000614501D0494501D159461BE0DFF8B48208
:100A700008F13008414511D0DFF8A482A8F1180828
:100A800041450BD0DFF89C8208F19008414505D024
:100A9000DFF88C8208F14808414501D1714601E038
:100AA0004FF00061DFF87C82A8F11008C8F80C1044
:100AB00035E0814205D0914203D0994201D0A9424C
:100AC00001D1202125E0B14205D0B94203D06145D2
:100AD00001D0494501D159461BE0DFF8488208F1B1
:100AE0003008414511D0DFF83882A8F11808414597
:100AF0000BD0DFF8308208F19008414505D0DFF8CF
:100B0000208208F14808414501D1714601E04FF0CB
:100B10000061DFF81082A8F11008C8F80810DFF8AB
:100B2000008221684FF4806B4FF4801E414534D918
:100B3000814205D0914203D0994201D0A94201D10E
:100B4000102125E0B14205D0B94203D0614501D062
:100B5000494501D159461BE0DFF8C88108F130084A
:100B6000414511D0DFF8B881A8F1180841450BD0F4
:100B7000DFF8B08108F19008414505D0DFF8A08189
:100B800008F14808414501D1714601E04FF080610C
:100B9000DFF88C81A8F14C0839E0DFF8888108F192
:100BA000A808414536D9814205D0914203D09942E7
:100BB00001D0A94201D1102125E0B14205D0B942AE
:100BC00003D0614501D0494501D159461BE0DFF80A
:100BD000548108F13008414511D0DFF84481A8F173
:100BE000180841450BD0DFF83C8108F190084145D9
:100BF00005D0DFF82C8108F14808414501D1714644
:100C000001E04FF08061DFF81881A8F15008C8F8C2
:100C1000001072E0DFF80C8108F14808414536D930
:100C2000814205D0914203D0994201D0A94201D11D
:100C3000102125E0B14205D0B94203D0614501D071
:100C4000494501D159461BE0DFF8D88008F130084A
:100C5000414511D0DFF8C880A8F1180841450BD0F4
:100C6000DFF8C08008F19008414505D0DFF8B0807A
:100C700008F14808414501D1714601E04FF080611B
:100C8000DFF8A080A8F11008C8F80C1035E0814208
:100C900005D0914203D0994201D0A94201D110213F
:100CA00025E0B14205D0B94203D0614501D04945A4
:100CB00001D159461BE0DFF86C8008F1300841454E
:100CC00011D0DFF85C80A8F1180841450BD0DFF89F
:100CD000548008F19008414505D0DFF8448008F1C0
:100CE0004808414501D1714601E04FF08061DFF8CD
:100CF0003480A8F11008C8F80810DFF824802168B3
:100D00004FF4007B4FF4002E414534D9814205D089
:100D1000914203D0994201D0A94205D1082125E092
:100D20005864024010600240B14205D0B94203D07D
:100D3000614501D0494501D1594617E0DFF8E0840B
:100D400041450FD0DFF8DC8441450BD0DFF8D0847B
:100D500008F16008414505D0DFF8C88408F1600853
:100D6000414501D1714601E04FF00071DFF8B484D4
:100D7000A8F1340835E0DFF8A88408F17808414587
:100D800032D9814205D0914203D0994201D0A94283
:100D900001D1082121E0B14205D0B94203D061451B
:100DA00001D0494501D1594617E0DFF87484414527
:100DB0000FD0DFF8708441450BD0DFF8648408F170
:100DC0006008414505D0DFF85C8408F160084145C2
:100DD00001D1714601E04FF00071DFF84884A8F1BD
:100DE0003808C8F800106AE0DFF8348408F1180801
:100DF000414532D9814205D0914203D0994201D078
:100E0000A94201D1082121E0B14205D0B94203D065
:100E1000614501D0494501D1594617E0DFF800840A
:100E200041450FD0DFF8FC8341450BD0DFF8F0835C
:100E300008F16008414505D0DFF8E88308F1600853
:100E4000414501D1714601E04FF00071DFF8D083D8
:100E5000A8F14008C8F80C1031E0814205D0914259
:100E600003D0994201D0A94201D1082121E0B14229
:100E700005D0B94203D0614501D0494501D1594659
:100E800017E0DFF89C8341450FD0DFF89883414598
:100E90000BD0DFF88C8308F16008414505D0DFF8FE
:100EA000848308F16008414501D1714601E04FF0AB
:100EB0000071DFF86C83A8F14008C8F80810DFF86B
:100EC0006483216808F118084FF4802B4FF0807E6E
:100ED00041452FD9814205D0914203D0994201D09A
:100EE000A94201D1042120E0B14205D0B94203D08A
:100EF000614501D0494501D1514616E0DFF8208314
:100F000041450FD0DFF81C8341450BD0DFF810833B
:100F100008F16008414505D0DFF8088308F1600852
:100F2000414501D1594600E07146DFF8F882A8F149
:100F3000340834E0DFF8E88208F17808414531D917
:100F4000814205D0914203D0994201D0A94201D1FA
:100F5000042120E0B14205D0B94203D0614501D05F
:100F6000494501D1514616E0DFF8B48241450FD022
:100F7000DFF8B08241450BD0DFF8A48208F16008A9
:100F8000414505D0DFF89C8208F16008414501D158
:100F9000594600E07146DFF88C82A8F13808C8F89D
:100FA000001068E0DFF8788208F11808414531D96F
:100FB000814205D0914203D0994201D0A94201D18A
:100FC000042120E0B14205D0B94203D0614501D0EF
:100FD000494501D1514616E0DFF8448241450FD022
:100FE000DFF8408241450BD0DFF8348208F1600819
:100FF000414505D0DFF82C8208F16008414501D158
:10100000594600E07146DFF81882A8F14008C8F898
:101010000C1030E0814205D0914203D0994201D0BA
:10102000A94201D1042120E0B14205D0B94203D048
:10103000614501D0494501D1514616E0DFF8E08114
:1010400041450FD0DFF8DC8141450BD0DFF8D0817E
:1010500008F16008414505D0DFF8C88108F1600853
:10106000414501D1594600E07146DFF8B481A8F14D
:101070004008C8F80810DFF8AC81216808F11808AA
:101080004FF4803A4FF4800B414527D9814205D077
:10109000914203D0994201D0A94201D101201AE026
:1010A000B14205D0B94203D0614501D0494501D1D3
:1010B000402010E05A4881420AD05A48814207D065
:1010C00057486030814203D056486030814201D198
:1010D000504600E05846534934392CE0DFF840814F
:1010E00008F17808414528D9814205D0914203D0C2
:1010F000994201D0A94201D101201AE0B14205D0A4
:10110000B94203D0614501D0494501D1402010E0EA
:10111000434881420AD04348814207D0404860306A
:10112000814203D03F486030814201D1504600E007
:1011300058463C493839086056E0DFF8E48008F149
:101140001808414528D9814205D0914203D09942DF
:1011500001D0A94201D101201AE0B14205D0B94223
:1011600003D0614501D0494501D1402010E02C4811
:1011700081420AD02B48814207D029486030814201
:1011800003D028486030814201D1504600E05846E3
:1011900023494039C86027E0814205D0914203D0FD
:1011A000994201D0A94201D101201AE0B14205D0F3
:1011B000B94203D0614501D0494501D1402010E03A
:1011C000174881420AD01748814207D0144860303E
:1011D000814203D013486030814201D1504600E083
:1011E00058460F49403988602068016841F016016F
:1011F00001602068416941F080014161206C08B9BB
:10120000A06C20B12068016841F0080101602068ED
:10121000016841F0010101600098BDE8F88F00000D
:1012200040600240406402402DE9F0410446876D71
:1012300000F0DCFA064694F835000025022806D0B6
:101240008020606584F834500120BDE8F08120687A
:10125000016821F0160101602068416921F08001D8
:101260004161206C08B9A06C20B12068016821F0B0
:10127000080101602068016821F0010101600CE0B3
:1012800000F0B4FA801B052807D9202060650320F0
:1012900084F8350084F83450D7E720680068C00728
:1012A000EED194F85C103F208840B860012084F8AB
:1012B000350084F834500020C7E790F83510022933
:1012C00003D08021416501207047052180F8351049
:1012D0000068016821F001010160002070470000F2
:1012E0002DE9F84304464FF00009CDF8009063481B
:1012F0004FF41651A56D0068B0FBF1F72E6894F815
:101300005C10082000FA01F131420FD021680A6810
:1013100052070BD50A6822F004020A6094F85C10A8
:101320008840A860606D40F00100606594F85C1032
:101330004FF0010808FA01F0304208D021684969ED
:10134000090604D5A860606D40F00200606594F85D
:101350005C1004208840304208D021680968890761
:1013600004D5A860606D40F00400606594F85C10DE
:1013700010208840304218D021680968090714D528
:10138000A86020680168490304D50068000308D5F7
:10139000A16C07E00168C90503D4016821F00801C8
:1013A0000160216C09B12046884794F85C10202028
:1013B0008840304231D021680968C9062DD5A8601F
:1013C00094F8350005282068016806D0490347D500
:1013D000006800031DD4616C1CE021F0160101605F
:1013E0002068416921F080014161206C08B9A06C3E
:1013F00020B12068016821F00801016094F85C10B8
:101400003F208840A86084F8358084F83490216DAE
:101410001FE0E16B09B120468847606D00282BD0A2
:10142000606DC00714D0052084F83500206801687D
:1014300021F0010101600098401C0090B84203D8DF
:1014400020680068C007F6D184F8358084F83490AD
:10145000E16C002910D001B02046BDE8F0430847F8
:101460000168C905D5D4016821F01001016084F834
:10147000358084F83490CCE7BDE8F8831400002070
:101480002DE9F041044600F0B1F906465CB10220B6
:1014900084F83500002584F834502068016821F074
:1014A000010101600DE00120BDE8F08100F09EF92E
:1014B000801B052805D920206065032084F83500AD
:1014C000F2E720680068C007F0D122681168204860
:1014D0000140D4E901031843D4E9033633431843E8
:1014E00063691843A3691843E3691843236A1843DF
:1014F0000843616A042903D1D4E90B131943084353
:10150000106020684069666A20F0070130460E438B
:10151000012704280CD1A06A0643E06A40B12046A6
:10152000FEF732FF20B14020606584F83570BAE7DD
:10153000206846612046FEF713FF94F85C203F21A7
:1015400091408160656584F835700020ACE700004B
:101550003F8010F02DE9F0410446866D90F834008C
:10156000002501280DD0012084F8340094F835704E
:101570000020012F07D084F8340002252846BDE85A
:10158000F0810220FBE7022784F835706065204671
:10159000FEF733FF94F85C103F208840B06020686D
:1015A000016841F016010160206C20B120680168DB
:1015B00041F0080101602068016841F0010101600B
:1015C000DCE7000070B5044600F010F90546601C29
:1015D00002D004480078044400F008F9401BA042FF
:1015E000FAD370BD080000202DE9F84FDFF8BCA148
:1015F0000022012503264FF00F090AF1040BAAF17E
:10160000040E00BF0B6805FA02F42340A34270D118
:101610000F7907F00307012F01D0022F16D1876839
:101620004FEA420806FA08FC27EA0C07D1F80CC07A
:101630000CFA08FC4CEA070CC0F808C04768A7433E
:101640000C79C4F3001494403C4344600C79E443A7
:10165000A4070AD0C4684FEA420C06FA0CF7BC4350
:101660008F6807FA0CF72743C7600C7904F003046E
:10167000022C12D1D40800EB840CDCF82040570770
:10168000FF0E09FA07F824EA0804D1F8108008FAD6
:1016900007F848EA0408CCF8208004684FEA420CB6
:1016A00006FA0CF7BC430F7907F0030707FA0CF7AB
:1016B000274307604C6814F4403F70D03C4C2768C7
:1016C00047F480472760246822F0030704F480442D
:1016D0000094384C07EB040CDCF8084897074FEAF5
:1016E000177809FA08F7BC43334FB84202D10027F4
:1016F00024E054E0314FB84201D101271EE0304FC1
:10170000B84201D1022719E02E4FB84201D1032778
:1017100014E02D4FB84201D104270FE02B4FB842FF
:1017200001D105270AE02A4FB84201D1062705E07A
:10173000284FB84201D1072700E0082707FA08F729
:101740002743CCF80878DAF800405746D1F804C0AF
:101750009C435FEACC2C00D51C433C60DBF8004086
:101760005F46D1F804C09C435FEA8C2C00D51C4333
:101770003C60DEF800407746D1F804C09C435FEA45
:101780008C3C00D51C433C60084F083F3C68D1F8B6
:1017900004C09C435FEACC3C00D51C433C60521C17
:1017A000102AFFF42FAFBDE8F88F0000083C01407D
:1017B0004438024000300140000002400004024072
:1017C00000080240000C02400010024000140240D9
:1017D00000180240001C02400069084000D00120AF
:1017E00070470AB1816170470904FBE701488068CE
:1017F0007047000008000020024881680278114408
:1018000081607047080000200B4810B5016841F462
:1018100000710160016841F480610160016841F478
:1018200080710160032000F06FF80F2000F006F8CF
:1018300000F024F8002010BD003C024070B50D4DB2
:1018400004464FF47A712878B1FBF0F00A49096830
:10185000B1FBF0F000F01DFD48B9102C07D20022BA
:101860002146501E00F030F800206C6070BD012051
:1018700070BD000008000020140000200A4808B5D0
:10188000016841F480410160006800F480400090EC
:101890000548001F016841F080510160006800F0B8
:1018A0008050009008BD000044380240002809DB49
:1018B00000F01F02012191404009800000F1E0206A
:1018C000C0F8001170470000F0B40E4B1B680C46C6
:1018D000C3F30223C3F10705042D00D90425191D04
:1018E000072901D2002300E0DB1E012606FA05F1DC
:1018F000491E214099409E40761E16403143F0BC5F
:1019000001F0D0BB0CED00E0064900F007020868CA
:101910004FF6FF03184040EA0220034A10430860D4
:10192000704700000CED00E00000FA052DE9F843D7
:10193000054600684FF00109C1074FF0000601D1CC
:10194000400727D5DFF80C81C8F86860FFF74EFF25
:101950000746414C05E000BFFFF748FFC01B0228C7
:1019600057D820680001F7D468688101287A41EAD5
:101970000070394984310860C8F86890FFF736FF75
:10198000074604E0FFF732FFC01B022841D8206859
:101990000001F7D52878800752D52F4840300168DC
:1019A00041F08051016000682C4C00F080500090A4
:1019B000206840F480702060FFF718FF074604E0BD
:1019C000FFF714FFC01B022823D82068C005F7D5F5
:1019D000214C7034206810F4407020D0A98901F4A3
:1019E000407181421BD020681D4920F44070C1F82D
:1019F00000900E6020602068C00710D0FFF7F6FE50
:101A0000064641F2883707E0FFF7F0FE801BB84238
:101A100002D90320BDE8F88320688007F4D5E9687F
:101A20000D48C1F301220830032A0BD0016821F4CC
:101A3000F81101602068A989C1F30B0108432060F7
:101A40000020E7E70268074B22F4F81219400A4326
:101A50000260EFE70000474200380240007000409B
:101A6000400E4742FFFCFF0F2DE9F0470E460500F0
:101A700065D0DFF81481D8F80000F7B200F0070055
:101A8000B04207D288F80070D8F8000000F00700D4
:101A9000B04254D128683D4C810712D5400703D588
:101AA000206840F4E05020602878000703D52068C3
:101AB00040F4604020602068A96820F0F0000843EE
:101AC00020602878C0072DD030496868083901287F
:101AD00012D0022813D0032811D0096889070029E1
:101AE0002DDA216821F0030101432160FFF77EFE1A
:101AF000814641F2883A0EE009688903EFE70968F8
:101B00008901ECE7FFF772FEA0EB0901514502D90C
:101B10000320BDE8F0872068696800F00C00B0EB96
:101B2000810FEFD1D8F80010404601F00701B14213
:101B300007D90770006800F00700B04201D001200B
:101B4000E7E72878400705D52068E96820F4E050E9
:101B5000084320602878000706D52068296920F40A
:101B6000604040EAC100206000F038F82168084A6F
:101B7000C1F30311515CC84006490860064800687B
:101B8000FFF75CFE0020C4E7003C0240083802403A
:101B900008350008140000200C0000200448054906
:101BA00000680968044AC1F38221515CC84070474B
:101BB0001400002008380240183500080448054980
:101BC00000680968044AC1F34231515CC84070475B
:101BD000140000200838024018350008154810B5D8
:101BE000006810F00C02144813D04110042A0FD0E2
:101BF000082A0ED10F4C241F2268236802F03F02EE
:101C00005B0207D52068C0F38810A0FB010106E045
:101C1000084610BD2168C1F38811A1FB0001002313
:101C2000FEF7D0FA2168C1F30141491C4900B0FB1D
:101C3000F1F010BD083802400024F4002DE9F84FFF
:101C400004006ED02078DFF84C93C007A9F104059A
:101C50004AD009F104000168C1F38101012908D0CB
:101C60000068C0F3810002280AD1D9F800004002C0
:101C700006D52868800337D560680028E1D033E0B6
:101C80006068B0F5803F10D0B0F5A02F286810D064
:101C900020F480302860286820F480202860606864
:101CA000A8B1FFF7A3FD06460DE0286840F4803098
:101CB000F4E740F480202860F7E700BFFFF796FDC7
:101CC000801B642873D828688003F7D50CE0FFF7E1
:101CD0008DFD064605E000BFFFF788FD801B6428E8
:101CE000F0D828688003F7D42078DFF8AC8280072A
:101CF0004FF0000A3ED5A748001D016811F00C0FF7
:101D000008D00068C0F3810002280BD1D9F8000088
:101D1000400207D42868800716D5E068012800D162
:101D200012E033E1E068B8B10120C8F80000FFF725
:101D30005DFD064605E000BFFFF758FD801B022849
:101D4000C0D828688007F7D52868216920F0F800F6
:101D500040EAC10028600DE0C8F800A0FFF746FD8A
:101D6000064604E0FFF742FD801B02281FD82868C2
:101D70008007F7D42078000722D5864F874861690D
:101D8000703771B101210160FFF730FD064604E0B4
:101D9000FFF72CFD801B022809D838688007F7D58B
:101DA0000EE0C0F800A0FFF721FD064605E082E046
:101DB000FFF71CFD801B02287DD838688007F7D408
:101DC0002078400768D5DFF8CCB100270BF13C0B39
:101DD000DBF80000C0000BD4DBF8001041F08051AC
:101DE000CBF80010DBF80000012700F080500090D5
:101DF0006B4E3068C00510D4306840F4807030609D
:101E0000FFF7F4FC009005E0FFF7F0FC0099401AA2
:101E1000022850D83068C005F6D55E4EA0686C36F2
:101E200001280FD00528306810D020F00100306064
:101E3000306820F004003060A068B8B1FFF7D6FC2D
:101E400000900FE0306840F00100F4E740F004003B
:101E50003060F7E7FFF7CAFC0099411A41F2883079
:101E6000814266D830688007F4D50EE0FFF7BEFCEB
:101E7000009007E0FFF7BAFC0099411A41F2883060
:101E8000814256D830688007F4D42FB1DBF80010B7
:101E900021F08051CBF80010A069C8B33D49091D5D
:101EA0000968C1F3810102294AD00228504607D0AF
:101EB000C8F8600000E03CE0FFF798FC04463BE017
:101EC0004746C8F86000FFF791FC064605E000BFF2
:101ED000FFF78CFC801B02282BD828688001F7D4E0
:101EE000D4E907010843A16A2E4A490802EB0141DF
:101EF000626A41EA8211084394F82C1040EA0161B9
:101F0000C9F8001001203866FFF770FC044606E0AF
:101F10003EE000BFFFF76AFC001B022809D82868D2
:101F20008001F7D534E000BFFFF760FC001B0228FA
:101F300002D90320BDE8F88F28688001F4D427E097
:101F40000128F7D0D9F80000E26900F4800191423D
:101F50001CD1226A00F03F01914217D147F6C071AF
:101F6000626A0140B1EB821F10D1A26A4FF0FF33C9
:101F700000F4403103EB5202B1EB024F06D194F86A
:101F80002C1000F07060B0EB016F01D00120D1E7A0
:101F90000020CFE70438024000004742800E47424D
:101FA000007000400000FFFF10B500680B4641685C
:101FB0000D480140080CD870C1F304245C7001F096
:101FC0003F049C70C1F34231197052B900F04EFDCC
:101FD000D870587800F04AFD5870987800F046FDA7
:101FE0009870002010BD00003FFFFF0010B50B46A9
:101FF0000168896A596001680969C1F30E01996035
:10200000006801680D480140C1F305401870C1F334
:1020100006245C7001F07F049C70890DD97052B960
:1020200000F024FD1870587800F020FD5870987862
:1020300000F01CFD9870002010BD00007F7F7F0025
:1020400010B5040002D0607F10B106E0012010BD81
:1020500000202077204600F039F8022060772168C0
:10206000CA204862216853204862204600F014FDCF
:1020700030BB20688168144A1140816021688868FB
:1020800062681043D4E904231A431043886021682E
:10209000E068086120680169228941EA0241016122
:1020A000204600F01DFD58B921680A6C22F48022F8
:1020B0000A6421680A6CA3691A430A6401216177E2
:1020C0002268FF21516210BDBFFF8FFF1FB50021A5
:1020D00000910191029103910068084988420CD156
:1020E00002200090C00103906846FFF71FFC08B172
:1020F000FEF798F90249012008601FBD0028004042
:102100003C0E474270B50446007F0B46012819D0AB
:102110000126267702206077B2B19878D97840EA14
:10212000014558781978000240EA4130054321689A
:10213000CA204862216853204862204600F0ACFC67
:10214000D0B122E0022070BD5878C10603D500F05E
:10215000EF000A305870D87800F091FC02045878EB
:1021600000F08DFC42EA0022987800F088FC0243DF
:10217000187842EA4035DAE70748054020684560AC
:10218000204600F0ADFC00B966772268FF2151625D
:102190000021217770BD00003FFFFF002DE9F041D5
:1021A0000446007F0D46012823D04FF0010884F833
:1021B0001C80022060772068002780684FEA40601A
:1021C000D2B1002800DBEF70A878297840EA0146F8
:1021D0006878E978000240EA815006432168CA2005
:1021E0004862216853204862204600F055FCB8B18F
:1021F0002CE00220BDE8F081002800DBEF70287899
:1022000000F03DFC0204687800F039FC42EA00224C
:10221000A87800F034FC0243E87842EA8056DDE713
:102220000D480640206806602068816821F48021FE
:102230008160D5E90301084321688A6810438860FA
:10224000204600F04DFC08B984F81D802268FF216B
:1022500051622777CEE700007F7F7F0070B504468C
:102260000068C16821F0A001C160FFF7BFFA054610
:102270004FF47A7607E000BFFFF7B8FA401BB04290
:1022800001D9032070BD2068C0688006F4D5002005
:1022900070BD10B5401EB0F1807F01D3012010BD8C
:1022A0004FF0E02460610F21601700F0FBFE00207A
:1022B000A06107202061002010BD70B5040004D08B
:1022C00094F83D00002510B106E0012070BD84F8AF
:1022D0003C50204600F022F8242084F83D0020687D
:1022E000C16821F40051C160204600F007FE20685B
:1022F000016921F4904101612068416921F02A01BE
:1023000041612068C16841F40051C160256420200A
:1023100084F83D0084F83E00002070BD70B586B0A2
:10232000044614216846FDF785FF234E22680021EC
:102330002248022303240725B2421AD11F4A14322D
:10234000166846F010061660126802F01002059238
:10235000026842F001020260006802AA00F0010077
:10236000059082E832006002CDE900036946144816
:102370001DE0144EB2421CD1104A1032166846F4C9
:1023800080261660126802F480220592026842F0EC
:1023900002020260006802AA00F00200059082E8D2
:1023A00032004FF44060CDE9000369460648FFF76C
:1023B0001BF906B070BD000000100140303802402B
:1023C0000000024000480040000402402DE9F843AC
:1023D000044690F83D001F4616460D4620284CD175
:1023E000C5B1BEB194F83C00012846D0012084F864
:1023F0003C004FF00008C4F84080212084F83D00E4
:10240000FFF7F4F9A6848146E684A068B0F5805F02
:1024100003D004E00120BDE8F883206928B12E46EE
:102420005FF0000584F83C800EE00026FAE780218A
:10243000204600F0E9FDA0B9AEB116F8010B216805
:102440004860E08C401EE084E08C4B464FF0000278
:1024500000970028EBD14FF04001204600F0D4FD5A
:1024600030B10320D7E735F8020BC0F30800E6E7E8
:10247000202084F83D000020CDE70220CBE70000BB
:1024800070B500252A462C464FF6FF76035DFF2BDC
:102490000FD103195B78D82B02D0D92B04D008E0D8
:1024A0003AB92146012204E01AB1621A921C95B28F
:1024B00003E0641CA4B2B442E8D34418294605A042
:1024C00000F0E0FD33462A462146BDE8704005484D
:1024D000FFF77CBF6A70674C656E3A2025640D0A71
:1024E000000000003C010020FEE7642110FB01F029
:1024F000401EFDD2704770B50C460546FFF76CF9DB
:1025000008B1012070BD21462846FFF765F9002873
:10251000F9D0002070BD00000C4810B50A490160D8
:1025200000212022C0E90112C16001614161816185
:1025300008210162FEF70AF8002803D0BDE8104028
:10254000FDF770BF10BD00000000055038000020EE
:10255000094808B5016841F4800101600068002263
:1025600000F48000009002213920FFF7ADF9BDE8AA
:1025700008403920FFF79AB9303802402DE9F04180
:1025800086B014216846FDF755FE334800250168E2
:1025900041F010010160016801F01001059101682E
:1025A00041F004010160016801F004010591016836
:1025B00041F080010160016801F08001059101682E
:1025C00041F001010160016801F00101059101681C
:1025D00041F002010160016801F00201059101680A
:1025E00041F008010160016801F0080105910168EE
:1025F00041F0400101600068184F00F04000059074
:102600000022C0213846FFF7ECF8DFF854804FF481
:102610000246002231464046FFF7E3F80420CDE9A8
:1026200000050124694602940E48FEF7DDFFC02034
:10263000CDE900040320CDE9024069463846FEF7A3
:10264000D3FF0096CDE90145694640460395FEF764
:10265000CBFF06B0BDE8F08130380240000C0240EC
:10266000001802400010024010B586B014216846E0
:10267000FDF7E0FD1D4800241B490594C0E9001446
:102680007F218160FF21C0E9031444618461FFF769
:10269000D7FC08B1FDF7C6FE16208DF800008DF8B6
:1026A00001408DF802400394012269460F480494CA
:1026B000FFF774FD08B1FDF7B5FE07208DF8140093
:1026C00010208DF8150011208DF8160023208DF8AC
:1026D0001700012205A90548FFF714FD002801D0C5
:1026E000FDF7A0FE06B010BD00280040D800002075
:1026F0000C4810B50A4901604FF4E13141600021F6
:1027000081600C22C160C0E904128161C161FFF7E0
:10271000D4FD002803D0BDE81040FDF783BE10BDF6
:1027200000100140F80000200C4810B50A49016073
:102730004FF4E1314160002181600C22C160C0E9A9
:1027400004128161C161FFF7B8FD002803D0BDE824
:102750001040FDF767BE10BD004800403C0100205E
:10276000FEE7FEE770B508495FF0000401EBC00525
:1027700005EB4400417815F8140000F057F9641C8B
:10278000E4B2042CF4D370BD2035000810B5044623
:102790000021FF2000F04AF900217C2000F046F9DA
:1027A00004217D2000F042F909217C2000F03EF94F
:1027B00021467D2000F03AF90021BDE810407D203F
:1027C00000F034B910B5124800F0EAF810488178EA
:1027D000262907D0C278422A04D00EA000F052FC6D
:1027E000012010BDC27813A000F04CFC062000F0C0
:1027F0002BF8012000F0B0F8002000F079F820203C
:10280000FFF7C4FF0020FFF7ADFF002010BD000060
:102810001A0000204F56323634305F5265616449E9
:1028200044206572726F722C2030782578257821CB
:102830000D0A00004F56323634302049443A2030D9
:1028400078257825780D0A0070B5274E05460024B6
:1028500006EB4400417816F8140000F0E7F8641C19
:10286000BE2CF5D3214E002406EB4400417816F827
:10287000140000F0DBF8641C092CF5D30121FF20C3
:1028800000F0D4F80021152000F0D0F8174E0024F5
:1028900016F1120606EB4400417816F8140000F019
:1028A000C5F8641C082CF5D36420FEF78BFE0F4E90
:1028B0004FF000042236062D0BD000BF06EB44007B
:1028C000417816F8140000F0B1F8641C282CF5D3F8
:1028D00070BD06EB4400417816F8140000F0A6F82D
:1028E000641C282CF5D370BD48350008C436000898
:1028F00070B505281AD2DFE800F0030A0E121600A0
:102900000021FF2000F092F81021C72020E05E2671
:10291000412554240AE0652641254F2406E052262D
:102920004125662402E042263F2571240021FF2034
:1029300000F07CF84021C72000F078F83146CC2028
:1029400000F074F82946CD2000F070F82146CE2022
:10295000BDE8704000F06AB810B528B1012809D070
:1029600002280DD0032811D00121FF2000F05EF8CD
:10297000282110E00121FF2000F058F858210AE03A
:102980000121FF2000F052F8982104E00121FF20EE
:1029900000F04CF8D821BDE81040042000F046B803
:1029A00010B504461C2000F00EF820701D2000F029
:1029B0000AF860700A2000F006F8A0700B2000F002
:1029C00002F8E07010BD10B5044600F037F9602041
:1029D00000F0AAF96420FEF7F5FD204600F0A4F906
:1029E0006420FEF7EFFD00F051F96420FEF7EAFDE8
:1029F00000F024F9612000F097F96420FEF7E2FD71
:102A0000002000F0E3F8044600F040F9204610BD35
:102A100010B50121FF2000F009F88021122000F0FC
:102A200005F8BDE810403220FEF7CCBD70B50D466C
:102A30000646002400F002F9602000F075F900B1AC
:102A400001246420FEF7BEFD304600F06DF900B1B0
:102A500001246420FEF7B6FD284600F065F900B1B8
:102A6000012400F013F9204670BD7047010901EB05
:102A7000810100F00F0000EB4100C0B2704700215F
:102A800003E0491C0A38C9B2C0B20A28F9D20907C2
:102A900040EA1160704700002DE9F04104460068EB
:102AA0000025C168490618D4C16841F08001C160A1
:102AB000FEF79CFE06464FF47A78042707E000BF35
:102AC000FEF794FE801B404501D9677701252068F9
:102AD000C068400601D4002DF2D02846BDE8F08140
:102AE00070B5044600680025C16821F08001C1600E
:102AF00020688068800606D42046FFF7AFFB10B13F
:102B0000042060770125284670BD000010B500F054
:102B10004DF80E4C002240212046FEF762FE0022B6
:102B200080212046FEF75DFE0A20FFF7DEFC012231
:102B300040212046FEF755FE0A20FFF7D6FC20462E
:102B40000022BDE810404021FEF74BBE000C0240C1
:102B500000B585B0002001908020009002200390F5
:102B600069460248FEF740FD05B000BD000C02407A
:102B700010B500F01BF80C4C002240212046FEF757
:102B800030FE012280212046FEF72BFE0A20FFF7AF
:102B9000ACFC012240212046FEF723FEBDE8104098
:102BA0000A20FFF7A2BC0000000C024000B585B06F
:102BB0000120019080200090022003906946024885
:102BC000FEF712FD05B000BD000C02402DE9F041FA
:102BD00007460025FFF7BCFF174E01224021304673
:102BE000FEF7FFFD0A20FFF780FC8024802130469D
:102BF000FEF7F2FD012800D125430A20FFF775FCFE
:102C0000002240213046FEF7ECFD0A20FFF76DFC64
:102C1000012240213046FEF7E4FD0A20FFF765FC63
:102C20006408E3D1012F04D0FFF7A2FF2846BDE8D6
:102C3000F081FFF76BFFF9E7000C024010B5FFF7DA
:102C4000B5FF114C002240212046FEF7CAFD0122AB
:102C500080212046FEF7C5FD012240212046FEF7D7
:102C6000C0FD0A20FFF741FC002280212046FEF72C
:102C7000B8FD0A20FFF739FC20460022BDE81040CD
:102C80004021FEF7AEBD0000000C024010B5FFF77A
:102C90008DFF0E4C002240212046FEF7A2FD0022AF
:102CA00080212046FEF79DFD012240212046FEF7AF
:102CB00098FD0A20FFF719FC012280212046FEF72B
:102CC00090FDBDE810400A20FFF70FBC000C024049
:102CD00070B5FFF76BFF134D012280212846FEF7E8
:102CE00080FDFFF735FF012240212846FEF779FDE0
:102CF0000A20FFF7FAFB07E0641CE4B2C82C03D9F2
:102D0000FFF7C4FF002070BD80212846FEF764FD58
:102D10000028F1D1002240212846FEF762FD012063
:102D200070BD0000000C024070B50546FFF73EFF85
:102D30008024254202D000F009F801E000F026F8D6
:102D40006408F6D1BDE87040FFF7C2BF10B50E4C65
:102D5000002240212046FEF744FD0122802120462A
:102D6000FEF73FFD0A20FFF7C0FB0122402120466D
:102D7000FEF737FD0A20FFF7B8FB20460022BDE82A
:102D800010404021FEF72DBD000C024010B50E4C46
:102D9000002240212046FEF724FD0022802120460B
:102DA000FEF71FFD0A20FFF7A0FB0122402120466D
:102DB000FEF717FD0A20FFF798FB20460022BDE82A
:102DC00010404021FEF70DBD000C0240704700008E
:102DD00070B50D4C00224FF400712046FEF701FD46
:102DE0000A20FEF7EFFB4FF400450022294620465B
:102DF000FEF7F7FC0A20FEF7E5FB29462046BDE872
:102E000070400122FEF7EDBC001802400C4810B5DE
:102E10000068C16841F00101C1604FF420442146BF
:102E20000848FDF707FA21460748FDF703FAA31003
:102E3000BDE81040034A00210148FDF761BC0000D5
:102E4000380000208001002080A10020FEF7D4BCC3
:102E500030B593B030216846FDF7ECF914210CA889
:102E6000FDF7E8F91F480025016841F08051016035
:102E7000006800F0805011901B48016841F48041C7
:102E800001600068022400F4804011900520009049
:102E90004FF480300190012002908005CDE906407A
:102EA000082008904FF4A870CDE9090404200B9085
:102EB0006846FEF7C3FE08B172B6FEE70CA90F2004
:102EC00081E831004FF4A0500F904FF480501090E3
:102ED00005210CA8FEF7C8FD002801D072B6FEE758
:102EE00013B030BD40380240007000400248016815
:102EF00041F470010160704788ED00E070B5044650
:102F000000680169E26821F44051114301612169BF
:102F1000A068E26908436169114308432168CA68EF
:102F200049F20C639A430243CA6020684169A2696E
:102F300021F440711143416131492068884202D037
:102F40003049884202D1FEF739FE01E0FEF726FE45
:102F5000E2690023192164253226B2F5004F626828
:102F600028D0A0FB0101930F9200FDF72BF9014639
:102F7000B0FBF5F06FF01802504301EB800006EB58
:102F80000010B0FBF5F000F0F002B1FBF5F002EB41
:102F90000012B1FBF5F06FF01803584301EB80000D
:102FA00006EB0010B0FBF5F000F00F0021681044B4
:102FB000886070BDA0FB010192185B41FDF702F92A
:102FC0000146B0FBF5F00201B1FBF5F06FF018031C
:102FD000584301EB800006EBC000B0FBF5F000F0B9
:102FE000F80002EB4002B1FBF5F0584301EB800022
:102FF00006EBC000B0FBF5F000F00700D6E70000DC
:1030000000100140001401402DE9F0419846174698
:103010000E460446069D27E0681C25D02DB1FEF71C
:10302000E5FBA0EB0800A8421ED920680C3050E850
:10303000001F21F4D07140E80012002AF5D1206869
:10304000143050E8001F21F0010140E80012002A6E
:10305000F5D1202084F83D0084F83E00002084F85B
:103060003C000320BDE8F0812068006836EA0000DB
:1030700004D00020B842CFD00020F3E70120F9E7C8
:10308000FEE700000FB4054B10B503A9044A0298EF
:1030900000F028F810BC5DF814FB0000A533000810
:1030A000200000200907090E002804DB00F1E020C1
:1030B00080F80014704700F00F0000F1E02080F865
:1030C000141D704702E008C8121F08C1002AFAD177
:1030D00070477047002001E001C1121F002AFBD198
:1030E000704700002DE9FF4F8DB09B460F46044608
:1030F000002606E025280BD05A460F999047641CFD
:10310000761C20780028F5D111B03046BDE8F08F4C
:103110000025A8460122984900E0054314F8013F24
:10312000203B02FA03F00842F7D120782E2817D16D
:1031300014F8010F45F004052A280ED06FF02F0275
:103140002078A0F1300109290AD808EB880102EBA8
:10315000410100EB0108641CF2E757F8048B641C82
:1031600020786C280DD004DC4C2812D06A2811D1AC
:1031700004E074280DD07A280CD10AE045F400153B
:1031800007E0617845F48015814202D1641C05F5A1
:103190008015641C2078692844D008DC0028B3D04E
:1031A000582867D063280FD0642808D13AE07028E7
:1031B00065D0732812D075285AD078285AD05A462C
:1031C0000F999047761CD5E017F8040B8DF8000096
:1031D00000208DF80100E946012003E057F8049B28
:1031E0004FF0FF3069074FF0000501D40AE06D1C75
:1031F00045450DDA8542FADB19F805100029F6D1AC
:1032000006E06D1C8542FCDB19F805100029F8D199
:103210002E4404E019F8010B5A460F9990476D1E91
:10322000F8D2A7E00A200021CDE90801C5F3025039
:1032300002280CD001CFC117021E71F100020CDA76
:103240000023D0EB030063EB01012D2208E0FF1DFA
:1032500027F00707F7E80201EEE72A0504D52B223D
:103260008DF8282001223CE0EA073AD02022F7E737
:103270000A2000E010200021CDE9080107E010201D
:10328000002145F00405CDE908014FF00808C5F319
:103290000250022810D001CF00214FF0000A2A0767
:1032A00020D52278702A0DD0DDE908C38CF0100CEF
:1032B0005CEA030C0CD015E0FF1D27F00707F7E8C8
:1032C0000201EAE740228DF828204FF0010A0CE0C5
:1032D00050EA010306D030238DF828308DF82920DC
:1032E000022292462278582A04D024A20DF1200905
:1032F0000B9209E026A2F9E7DDE90823FCF762FF5B
:103300000B9B9B5C09F8013D50EA0102F4D1ADEB47
:10331000090020300890680701D44FF0010808998F
:10332000884503DD0898A8EB000000E000208046F7
:10333000002506E00AA85A46405D0F9990476D1C8B
:10334000761C5545F6DB04E030205A460F9990472D
:10335000761CB8F10001A8F10108F5DC05E019F8C8
:10336000010B5A460F999047761C0899481E089001
:103370000029F4DC641CC4E6092801003031323332
:1033800034353637383961626364656600000000A1
:10339000303132333435363738394142434445468B
:1033A0000000000013B54FF6FF7301226946024882
:1033B000FFF70CF800981CBDF8000020FEF724FA77
:1033C000FFF746FDFFF7DAF8FFF7C2F8FFF7A4F8BA
:1033D000FFF74AF9FFF78CF9FFF7A6F9FFF7F8FCBA
:1033E000FFF716FBFFF7EEF9002822D01CA000BF64
:1033F000FFF748FE1F4C204D4FF47A7600221F49FC
:103400001F48FEF7F3FD207010B11EA0FFF73AFE33
:1034100018490022491C1A48FEF7C6FD207010B159
:103420001EA0FFF72FFE04212846FFF764F848B1DD
:1034300011E020A0FFF726FE4FF4FA60FEF7C2F875
:1034400021A0D5E70D4927A08B784A780978FFF7A6
:1034500019FEFFF7DBFC3046FEF7B4F8CEE70000BC
:103460004F563236343020496E6974204661696C9B
:103470000D0A00000000002000100240240000207F
:10348000D8000020525443204765742054696D656C
:10349000206572726F72210D0A00000052544320A1
:1034A0004765742044617465206572726F72210DE6
:1034B0000A0000004F563236343020496E697420BD
:1034C0004F4B0D0A000000005072657373204B656E
:1034D000793220746F204361707475726520494D94
:1034E000470D0A00636170747572652074696D65BB
:1034F000203A2025643A25643A25640D0A0000002C
:103500000006101600061016000000000000000063
:103510000102030406070809000000000102030479
:10352000FF01242025182660FF012434251C2600D5
:10353000FF01243E25382681FF01244825402681AD
:10354000FF01245825502692FF002CFF2EDFFF019B
:103550003C3211000902042813E514482C0C33787E
:103560003A333BFB3E0043111610399235DA221AEA
:1035700037C3230034C0361A068807C00D870E41B2
:103580004C0048005B0042034A81219924402538C1
:1035900026825C006300617062807C052080283098
:1035A0006C006D806E007002719473C1124017112F
:1035B000184319001A4B320937C04F6050A86D00EC
:1035C0003D38463F4F600C3CFF00E57FF9C0412489
:1035D000E01476FF33A0422043184C0087D5883F83
:1035E000D703D910D382C808C9807C007D007C0332
:1035F0007D487D487C087D207D107D0E9000910ED9
:10360000911A9131915A91699175917E9188918F1A
:10361000919691A391AF91C491D791E89120920096
:10362000930693E39305930593009304930093000B
:1036300093009300930093009300960097089719C6
:103640009702970C97249730972897269702979878
:10365000978097009700C3EDA400A800C511C6513C
:10366000BF80C710B666B8A5B764B97CB3AFB497CE
:10367000B5FFB0C5B194B20FC45CC064C14B8C003F
:10368000863D500051C852965300540055005AC808
:103690005B965C00D37FC3ED7F00DA00E51FE16736
:1036A000E000DD7F05001240D37FC016C1128C0000
:1036B000863D5000512C52245300540055005A2C82
:1036C0005B245C00FF000500DA10D703DF003380C5
:1036D0003C40E1770000E014E177E51FD703DA1002
:1036E000E000FF010428FF011101120017111875F5
:1036F000323619011A97030F37404FBB509C5A5767
:103700006D803D3439023588220A374034A00602E4
:103710000DB70E01FF00E004C0C8C1968635508980
:103720005190522C53005400558857005AC85B964C
:103730005C00D302E00000005837000800000020C1
:1037400024000000C43000087C370008240000205A
:103750005C450100D43000080000000000000000BB
:103760000100000010000000000000000024F40030
:0C3770000000000000000000000000004D
:040000050800018965
:00000001FF
